{
  "contractName": "PairNamerTest",
  "abi": [
    {
      "inputs": [
        {
          "internalType": "address",
          "name": "token0",
          "type": "address"
        },
        {
          "internalType": "address",
          "name": "token1",
          "type": "address"
        },
        {
          "internalType": "string",
          "name": "prefix",
          "type": "string"
        },
        {
          "internalType": "string",
          "name": "suffix",
          "type": "string"
        }
      ],
      "name": "pairName",
      "outputs": [
        {
          "internalType": "string",
          "name": "",
          "type": "string"
        }
      ],
      "stateMutability": "view",
      "type": "function"
    },
    {
      "inputs": [
        {
          "internalType": "address",
          "name": "token0",
          "type": "address"
        },
        {
          "internalType": "address",
          "name": "token1",
          "type": "address"
        },
        {
          "internalType": "string",
          "name": "suffix",
          "type": "string"
        }
      ],
      "name": "pairSymbol",
      "outputs": [
        {
          "internalType": "string",
          "name": "",
          "type": "string"
        }
      ],
      "stateMutability": "view",
      "type": "function"
    }
  ],
  "bytecode": "0x608060405234801561001057600080fd5b50610f77806100206000396000f3fe608060405234801561001057600080fd5b50600436106100365760003560e01c80634c75e9181461003b578063e9f52d231461016d575b600080fd5b6100f26004803603606081101561005157600080fd5b81019080803573ffffffffffffffffffffffffffffffffffffffff169060200190929190803573ffffffffffffffffffffffffffffffffffffffff169060200190929190803590602001906401000000008111156100ae57600080fd5b8201836020820111156100c057600080fd5b803590602001918460018302840111640100000000831117156100e257600080fd5b90919293919293905050506102f4565b6040518080602001828103825283818151815260200191508051906020019080838360005b83811015610132578082015181840152602081019050610117565b50505050905090810190601f16801561015f5780820380516001836020036101000a031916815260200191505b509250505060405180910390f35b6102796004803603608081101561018357600080fd5b81019080803573ffffffffffffffffffffffffffffffffffffffff169060200190929190803573ffffffffffffffffffffffffffffffffffffffff169060200190929190803590602001906401000000008111156101e057600080fd5b8201836020820111156101f257600080fd5b8035906020019184600183028401116401000000008311171561021457600080fd5b90919293919293908035906020019064010000000081111561023557600080fd5b82018360208201111561024757600080fd5b8035906020019184600183028401116401000000008311171561026957600080fd5b909192939192939050505061034f565b6040518080602001828103825283818151815260200191508051906020019080838360005b838110156102b957808201518184015260208101905061029e565b50505050905090810190601f1680156102e65780820380516001836020036101000a031916815260200191505b509250505060405180910390f35b6060610345858585858080601f016020809104026020016040519081016040528093929190818152602001838380828437600081840152601f19601f820116905080830192505050505050506103f1565b9050949350505050565b60606103e5878787878080601f016020809104026020016040519081016040528093929190818152602001838380828437600081840152601f19601f8201169050808301925050505050505086868080601f016020809104026020016040519081016040528093929190818152602001838380828437600081840152601f19601f8201169050808301925050505050505061062d565b90509695505050505050565b60606040518060400160405280600481526020017ff09fa6840000000000000000000000000000000000000000000000000000000081525061043285610835565b6040518060400160405280600181526020017f3a0000000000000000000000000000000000000000000000000000000000000081525061047186610835565b856040516020018086805190602001908083835b602083106104a85780518252602082019150602081019050602083039250610485565b6001836020036101000a03801982511681845116808217855250505050505090500185805190602001908083835b602083106104f957805182526020820191506020810190506020830392506104d6565b6001836020036101000a03801982511681845116808217855250505050505090500184805190602001908083835b6020831061054a5780518252602082019150602081019050602083039250610527565b6001836020036101000a03801982511681845116808217855250505050505090500183805190602001908083835b6020831061059b5780518252602082019150602081019050602083039250610578565b6001836020036101000a03801982511681845116808217855250505050505090500182805190602001908083835b602083106105ec57805182526020820191506020810190506020830392506105c9565b6001836020036101000a0380198251168184511680821785525050505050509050019550505050505060405160208183030381529060405290509392505050565b60608261063986610870565b6040518060400160405280600181526020017f3a0000000000000000000000000000000000000000000000000000000000000081525061067887610870565b856040516020018086805190602001908083835b602083106106af578051825260208201915060208101905060208303925061068c565b6001836020036101000a03801982511681845116808217855250505050505090500185805190602001908083835b6020831061070057805182526020820191506020810190506020830392506106dd565b6001836020036101000a03801982511681845116808217855250505050505090500184805190602001908083835b60208310610751578051825260208201915060208101905060208303925061072e565b6001836020036101000a03801982511681845116808217855250505050505090500183805190602001908083835b602083106107a2578051825260208201915060208101905060208303925061077f565b6001836020036101000a03801982511681845116808217855250505050505090500182805190602001908083835b602083106107f357805182526020820191506020810190506020830392506107d0565b6001836020036101000a038019825116818451168082178552505050505050905001955050505050506040516020818303038152906040529050949350505050565b606080610849836395d89b4160e01b6108ab565b90506000815114156108665761085e83610b3a565b91505061086b565b809150505b919050565b606080610884836306fdde0360e01b6108ab565b90506000815114156108a15761089983610b4e565b9150506108a6565b809150505b919050565b6060600060608473ffffffffffffffffffffffffffffffffffffffff1684604051602401604051602081830303815290604052907bffffffffffffffffffffffffffffffffffffffffffffffffffffffff19166020820180517bffffffffffffffffffffffffffffffffffffffffffffffffffffffff83818316178352505050506040518082805190602001908083835b6020831061095f578051825260208201915060208101905060208303925061093c565b6001836020036101000a038019825116818451168082178552505050505050905001915050600060405180830381855afa9150503d80600081146109bf576040519150601f19603f3d011682016040523d82523d6000602084013e6109c4565b606091505b50915091508115806109d7575060008151145b156109f5576040518060200160405280600081525092505050610b34565b602081511415610a3c576000818060200190516020811015610a1657600080fd5b81019080805190602001909291905050509050610a3281610b62565b9350505050610b34565b604081511115610b1f57808060200190516020811015610a5b57600080fd5b8101908080516040519392919084640100000000821115610a7b57600080fd5b83820191506020820185811115610a9157600080fd5b8251866001820283011164010000000082111715610aae57600080fd5b8083526020830192505050908051906020019080838360005b83811015610ae2578082015181840152602081019050610ac7565b50505050905090810190601f168015610b0f5780820380516001836020036101000a031916815260200191505b5060405250505092505050610b34565b60405180602001604052806000815250925050505b92915050565b6060610b47826006610d24565b9050919050565b6060610b5b826028610d24565b9050919050565b606080602067ffffffffffffffff81118015610b7d57600080fd5b506040519080825280601f01601f191660200182016040528015610bb05781602001600182028036833780820191505090505b509050600080905060008090505b6020811015610c5b576000858260208110610bd557fe5b1a60f81b9050600060f81b817effffffffffffffffffffffffffffffffffffffffffffffffffffffffffffff191614610c4d5780848481518110610c1557fe5b60200101907effffffffffffffffffffffffffffffffffffffffffffffffffffffffffffff1916908160001a90535082806001019350505b508080600101915050610bbe565b5060608167ffffffffffffffff81118015610c7557600080fd5b506040519080825280601f01601f191660200182016040528015610ca85781602001600182028036833780820191505090505b50905060008090505b82811015610d1857838181518110610cc557fe5b602001015160f81c60f81b828281518110610cdc57fe5b60200101907effffffffffffffffffffffffffffffffffffffffffffffffffffffffffffff1916908160001a9053508080600101915050610cb1565b50809350505050919050565b6060600060028381610d3257fe5b06148015610d405750600082115b8015610d4d575060288211155b610dbf576040517f08c379a000000000000000000000000000000000000000000000000000000000815260040180806020018281038252601e8152602001807f41646472657373537472696e675574696c3a20494e56414c49445f4c454e000081525060200191505060405180910390fd5b60608267ffffffffffffffff81118015610dd857600080fd5b506040519080825280601f01601f191660200182016040528015610e0b5781602001600182028036833780820191505090505b50905060008473ffffffffffffffffffffffffffffffffffffffff16905060008090505b60028581610e3957fe5b04811015610f0a5760008160130360080283901c9050600060048260ff16901c9050600060048260ff16901b83039050610e7282610f16565b868560020281518110610e8157fe5b60200101907effffffffffffffffffffffffffffffffffffffffffffffffffffffffffffff1916908160001a905350610eb981610f16565b866001866002020181518110610ecb57fe5b60200101907effffffffffffffffffffffffffffffffffffffffffffffffffffffffffffff1916908160001a9053505050508080600101915050610e2f565b50819250505092915050565b6000600a8260ff161015610f32576030820160f81b9050610f3c565b6037820160f81b90505b91905056fea2646970667358221220105ea3f6441a2020f196bea510e72941bdc1653f041fe9e8bec5ffdcbd5c408264736f6c63430006060033",
  "immutableReferences": {},
  "source": "// SPDX-License-Identifier: GPL-3.0-or-later\n\npragma solidity >=0.5.0;\n\nimport '../utils/PairNamer.sol';\n\ncontract PairNamerTest {\n    function pairName(\n        address token0,\n        address token1,\n        string calldata prefix,\n        string calldata suffix\n    ) external view returns (string memory) {\n        return PairNamer.pairName(token0, token1, prefix, suffix);\n    }\n\n    function pairSymbol(\n        address token0,\n        address token1,\n        string calldata suffix\n    ) external view returns (string memory) {\n        return PairNamer.pairSymbol(token0, token1, suffix);\n    }\n}\n\n// we do not test with non compliant BEP20 implementations because that's handled by token namer\ncontract PairNamerTestFakeToken {\n    string public name;\n    string public symbol;\n\n    constructor(string memory name_, string memory symbol_) public {\n        name = name_;\n        symbol = symbol_;\n    }\n}\n",
  "sourcePath": "/Users/fabriciopolicarpo/Desktop/Projects/forkpancakeswap/pizzaswap-migrator/contracts/test/PairNamerTest.sol",
  "compiler": {
    "name": "solc",
    "version": "0.6.6+commit.6c089d02.Emscripten.clang"
  },
  "schemaVersion": "3.4.1",
  "updatedAt": "2021-06-18T18:22:48.016Z",
  "devdoc": {
    "methods": {}
  },
  "userdoc": {
    "methods": {}
  }
}