{
  "contractName": "TransferHelperTestFakeBEP20Compliant",
  "abi": [
    {
      "inputs": [],
      "name": "shouldRevert",
      "outputs": [
        {
          "internalType": "bool",
          "name": "",
          "type": "bool"
        }
      ],
      "stateMutability": "view",
      "type": "function"
    },
    {
      "inputs": [],
      "name": "success",
      "outputs": [
        {
          "internalType": "bool",
          "name": "",
          "type": "bool"
        }
      ],
      "stateMutability": "view",
      "type": "function"
    },
    {
      "inputs": [
        {
          "internalType": "bool",
          "name": "success_",
          "type": "bool"
        },
        {
          "internalType": "bool",
          "name": "shouldRevert_",
          "type": "bool"
        }
      ],
      "name": "setup",
      "outputs": [],
      "stateMutability": "nonpayable",
      "type": "function"
    },
    {
      "inputs": [
        {
          "internalType": "address",
          "name": "",
          "type": "address"
        },
        {
          "internalType": "uint256",
          "name": "",
          "type": "uint256"
        }
      ],
      "name": "transfer",
      "outputs": [
        {
          "internalType": "bool",
          "name": "",
          "type": "bool"
        }
      ],
      "stateMutability": "view",
      "type": "function"
    },
    {
      "inputs": [
        {
          "internalType": "address",
          "name": "",
          "type": "address"
        },
        {
          "internalType": "address",
          "name": "",
          "type": "address"
        },
        {
          "internalType": "uint256",
          "name": "",
          "type": "uint256"
        }
      ],
      "name": "transferFrom",
      "outputs": [
        {
          "internalType": "bool",
          "name": "",
          "type": "bool"
        }
      ],
      "stateMutability": "view",
      "type": "function"
    },
    {
      "inputs": [
        {
          "internalType": "address",
          "name": "",
          "type": "address"
        },
        {
          "internalType": "uint256",
          "name": "",
          "type": "uint256"
        }
      ],
      "name": "approve",
      "outputs": [
        {
          "internalType": "bool",
          "name": "",
          "type": "bool"
        }
      ],
      "stateMutability": "view",
      "type": "function"
    }
  ],
  "bytecode": "0x608060405234801561001057600080fd5b5061049d806100206000396000f3fe608060405234801561001057600080fd5b50600436106100625760003560e01c8063095ea7b3146100675780630b93381b146100cd57806315d98b40146100ef57806323b872dd1461012b578063a9059cbb146101b1578063d3072d8214610217575b600080fd5b6100b36004803603604081101561007d57600080fd5b81019080803573ffffffffffffffffffffffffffffffffffffffff16906020019092919080359060200190929190505050610239565b604051808215151515815260200191505060405180910390f35b6100d56102d4565b604051808215151515815260200191505060405180910390f35b6101296004803603604081101561010557600080fd5b810190808035151590602001909291908035151590602001909291905050506102e6565b005b6101976004803603606081101561014157600080fd5b81019080803573ffffffffffffffffffffffffffffffffffffffff169060200190929190803573ffffffffffffffffffffffffffffffffffffffff1690602001909291908035906020019092919050505061031d565b604051808215151515815260200191505060405180910390f35b6101fd600480360360408110156101c757600080fd5b81019080803573ffffffffffffffffffffffffffffffffffffffff169060200190929190803590602001909291905050506103b9565b604051808215151515815260200191505060405180910390f35b61021f610454565b604051808215151515815260200191505060405180910390f35b60008060019054906101000a900460ff16156102bd576040517f08c379a00000000000000000000000000000000000000000000000000000000081526004018080602001828103825260068152602001807f524556455254000000000000000000000000000000000000000000000000000081525060200191505060405180910390fd5b6000809054906101000a900460ff16905092915050565b6000809054906101000a900460ff1681565b816000806101000a81548160ff02191690831515021790555080600060016101000a81548160ff0219169083151502179055505050565b60008060019054906101000a900460ff16156103a1576040517f08c379a00000000000000000000000000000000000000000000000000000000081526004018080602001828103825260068152602001807f524556455254000000000000000000000000000000000000000000000000000081525060200191505060405180910390fd5b6000809054906101000a900460ff1690509392505050565b60008060019054906101000a900460ff161561043d576040517f08c379a00000000000000000000000000000000000000000000000000000000081526004018080602001828103825260068152602001807f524556455254000000000000000000000000000000000000000000000000000081525060200191505060405180910390fd5b6000809054906101000a900460ff16905092915050565b600060019054906101000a900460ff168156fea2646970667358221220a953d7f859de0fa3ccacb37951461f76d5c593bcb7fa767fdf46c015d0d9944764736f6c63430006060033",
  "immutableReferences": {},
  "source": "// SPDX-License-Identifier: GPL-3.0-or-later\n\npragma solidity >=0.6.0;\n\nimport '../utils/TransferHelper.sol';\n\n// test helper for transfers\ncontract TransferHelperTest {\n    function safeApprove(\n        address token,\n        address to,\n        uint256 value\n    ) external {\n        TransferHelper.safeApprove(token, to, value);\n    }\n\n    function safeTransfer(\n        address token,\n        address to,\n        uint256 value\n    ) external {\n        TransferHelper.safeTransfer(token, to, value);\n    }\n\n    function safeTransferFrom(\n        address token,\n        address from,\n        address to,\n        uint256 value\n    ) external {\n        TransferHelper.safeTransferFrom(token, from, to, value);\n    }\n\n    function safeTransferBNB(address to, uint256 value) external {\n        TransferHelper.safeTransferBNB(to, value);\n    }\n}\n\n// can revert on failure and returns true if successful\ncontract TransferHelperTestFakeBEP20Compliant {\n    bool public success;\n    bool public shouldRevert;\n\n    function setup(bool success_, bool shouldRevert_) public {\n        success = success_;\n        shouldRevert = shouldRevert_;\n    }\n\n    function transfer(address, uint256) public view returns (bool) {\n        require(!shouldRevert, 'REVERT');\n        return success;\n    }\n\n    function transferFrom(\n        address,\n        address,\n        uint256\n    ) public view returns (bool) {\n        require(!shouldRevert, 'REVERT');\n        return success;\n    }\n\n    function approve(address, uint256) public view returns (bool) {\n        require(!shouldRevert, 'REVERT');\n        return success;\n    }\n}\n\n// only reverts on failure, no return value\ncontract TransferHelperTestFakeBEP20Noncompliant {\n    bool public shouldRevert;\n\n    function setup(bool shouldRevert_) public {\n        shouldRevert = shouldRevert_;\n    }\n\n    function transfer(address, uint256) public view {\n        require(!shouldRevert);\n    }\n\n    function transferFrom(\n        address,\n        address,\n        uint256\n    ) public view {\n        require(!shouldRevert);\n    }\n\n    function approve(address, uint256) public view {\n        require(!shouldRevert);\n    }\n}\n\ncontract TransferHelperTestFakeFallback {\n    bool public shouldRevert;\n\n    function setup(bool shouldRevert_) public {\n        shouldRevert = shouldRevert_;\n    }\n\n    receive() external payable {\n        require(!shouldRevert);\n    }\n}\n",
  "sourcePath": "/Users/fabriciopolicarpo/Desktop/Projects/forkpancakeswap/pizzaswap-migrator/contracts/test/TransferHelperTest.sol",
  "compiler": {
    "name": "solc",
    "version": "0.6.6+commit.6c089d02.Emscripten.clang"
  },
  "schemaVersion": "3.4.1",
  "updatedAt": "2021-06-18T18:22:48.026Z",
  "devdoc": {
    "methods": {}
  },
  "userdoc": {
    "methods": {}
  }
}