{
  "contractName": "SafeMathTest",
  "abi": [
    {
      "inputs": [
        {
          "internalType": "uint256",
          "name": "num",
          "type": "uint256"
        }
      ],
      "name": "sqrt",
      "outputs": [
        {
          "internalType": "uint256",
          "name": "",
          "type": "uint256"
        }
      ],
      "stateMutability": "pure",
      "type": "function"
    }
  ],
  "bytecode": "0x608060405234801561001057600080fd5b5061010c806100206000396000f3fe6080604052348015600f57600080fd5b506004361060285760003560e01c8063677342ce14602d575b600080fd5b605660048036036020811015604157600080fd5b8101908080359060200190929190505050606c565b6040518082815260200191505060405180910390f35b6000607582607c565b9050919050565b6000600382111560c4578190506000600160028481609657fe5b040190505b8181101560bf5780915060028182858160b057fe5b04018160b857fe5b049050609b565b5060d1565b6000821460d057600190505b5b91905056fea264697066735822122067d01f2ad19743e4a811dfee19815c36d84004e43d0a6e4039434ea85b828d0364736f6c63430006060033",
  "immutableReferences": {},
  "source": "// SPDX-License-Identifier: GPL-3.0-or-later\n\npragma solidity >=0.4.0;\n\nimport '../math/SafeMath.sol';\n\n// used for testing the logic of token naming\ncontract SafeMathTest {\n    function sqrt(uint256 num) public pure returns (uint256) {\n        return SafeMath.sqrt(num);\n    }\n}\n",
  "sourcePath": "/Users/fabriciopolicarpo/Desktop/Projects/forkpancakeswap/pizzaswap-migrator/contracts/test/SafeMathTest.sol",
  "compiler": {
    "name": "solc",
    "version": "0.6.6+commit.6c089d02.Emscripten.clang"
  },
  "schemaVersion": "3.4.1",
  "updatedAt": "2021-06-18T18:22:48.023Z",
  "devdoc": {
    "methods": {}
  },
  "userdoc": {
    "methods": {}
  }
}