{
  "contractName": "SafeBEP20NamerTest",
  "abi": [
    {
      "inputs": [
        {
          "internalType": "address",
          "name": "token",
          "type": "address"
        }
      ],
      "name": "tokenSymbol",
      "outputs": [
        {
          "internalType": "string",
          "name": "",
          "type": "string"
        }
      ],
      "stateMutability": "view",
      "type": "function"
    },
    {
      "inputs": [
        {
          "internalType": "address",
          "name": "token",
          "type": "address"
        }
      ],
      "name": "tokenName",
      "outputs": [
        {
          "internalType": "string",
          "name": "",
          "type": "string"
        }
      ],
      "stateMutability": "view",
      "type": "function"
    }
  ],
  "bytecode": "0x608060405234801561001057600080fd5b5061091b806100206000396000f3fe608060405234801561001057600080fd5b50600436106100365760003560e01c8063033b9b4f1461003b578063e54f7522146100f8575b600080fd5b61007d6004803603602081101561005157600080fd5b81019080803573ffffffffffffffffffffffffffffffffffffffff1690602001909291905050506101b5565b6040518080602001828103825283818151815260200191508051906020019080838360005b838110156100bd5780820151818401526020810190506100a2565b50505050905090810190601f1680156100ea5780820380516001836020036101000a031916815260200191505b509250505060405180910390f35b61013a6004803603602081101561010e57600080fd5b81019080803573ffffffffffffffffffffffffffffffffffffffff1690602001909291905050506101c7565b6040518080602001828103825283818151815260200191508051906020019080838360005b8381101561017a57808201518184015260208101905061015f565b50505050905090810190601f1680156101a75780820380516001836020036101000a031916815260200191505b509250505060405180910390f35b60606101c0826101d9565b9050919050565b60606101d282610214565b9050919050565b6060806101ed836395d89b4160e01b61024f565b905060008151141561020a57610202836104de565b91505061020f565b809150505b919050565b606080610228836306fdde0360e01b61024f565b90506000815114156102455761023d836104f2565b91505061024a565b809150505b919050565b6060600060608473ffffffffffffffffffffffffffffffffffffffff1684604051602401604051602081830303815290604052907bffffffffffffffffffffffffffffffffffffffffffffffffffffffff19166020820180517bffffffffffffffffffffffffffffffffffffffffffffffffffffffff83818316178352505050506040518082805190602001908083835b6020831061030357805182526020820191506020810190506020830392506102e0565b6001836020036101000a038019825116818451168082178552505050505050905001915050600060405180830381855afa9150503d8060008114610363576040519150601f19603f3d011682016040523d82523d6000602084013e610368565b606091505b509150915081158061037b575060008151145b156103995760405180602001604052806000815250925050506104d8565b6020815114156103e05760008180602001905160208110156103ba57600080fd5b810190808051906020019092919050505090506103d681610506565b93505050506104d8565b6040815111156104c3578080602001905160208110156103ff57600080fd5b810190808051604051939291908464010000000082111561041f57600080fd5b8382019150602082018581111561043557600080fd5b825186600182028301116401000000008211171561045257600080fd5b8083526020830192505050908051906020019080838360005b8381101561048657808201518184015260208101905061046b565b50505050905090810190601f1680156104b35780820380516001836020036101000a031916815260200191505b50604052505050925050506104d8565b60405180602001604052806000815250925050505b92915050565b60606104eb8260066106c8565b9050919050565b60606104ff8260286106c8565b9050919050565b606080602067ffffffffffffffff8111801561052157600080fd5b506040519080825280601f01601f1916602001820160405280156105545781602001600182028036833780820191505090505b509050600080905060008090505b60208110156105ff57600085826020811061057957fe5b1a60f81b9050600060f81b817effffffffffffffffffffffffffffffffffffffffffffffffffffffffffffff1916146105f157808484815181106105b957fe5b60200101907effffffffffffffffffffffffffffffffffffffffffffffffffffffffffffff1916908160001a90535082806001019350505b508080600101915050610562565b5060608167ffffffffffffffff8111801561061957600080fd5b506040519080825280601f01601f19166020018201604052801561064c5781602001600182028036833780820191505090505b50905060008090505b828110156106bc5783818151811061066957fe5b602001015160f81c60f81b82828151811061068057fe5b60200101907effffffffffffffffffffffffffffffffffffffffffffffffffffffffffffff1916908160001a9053508080600101915050610655565b50809350505050919050565b60606000600283816106d657fe5b061480156106e45750600082115b80156106f1575060288211155b610763576040517f08c379a000000000000000000000000000000000000000000000000000000000815260040180806020018281038252601e8152602001807f41646472657373537472696e675574696c3a20494e56414c49445f4c454e000081525060200191505060405180910390fd5b60608267ffffffffffffffff8111801561077c57600080fd5b506040519080825280601f01601f1916602001820160405280156107af5781602001600182028036833780820191505090505b50905060008473ffffffffffffffffffffffffffffffffffffffff16905060008090505b600285816107dd57fe5b048110156108ae5760008160130360080283901c9050600060048260ff16901c9050600060048260ff16901b83039050610816826108ba565b86856002028151811061082557fe5b60200101907effffffffffffffffffffffffffffffffffffffffffffffffffffffffffffff1916908160001a90535061085d816108ba565b86600186600202018151811061086f57fe5b60200101907effffffffffffffffffffffffffffffffffffffffffffffffffffffffffffff1916908160001a90535050505080806001019150506107d3565b50819250505092915050565b6000600a8260ff1610156108d6576030820160f81b90506108e0565b6037820160f81b90505b91905056fea26469706673582212201a57d1839370c7d42470186f177fe756031d84e11a526e195fdcf89242289c2564736f6c63430006060033",
  "immutableReferences": {},
  "source": "// SPDX-License-Identifier: GPL-3.0-or-later\n\npragma solidity >=0.5.0;\n\nimport '../utils/SafeBEP20Namer.sol';\n\n// used for testing the logic of token naming\ncontract SafeBEP20NamerTest {\n    function tokenSymbol(address token) public view returns (string memory) {\n        return SafeBEP20Namer.tokenSymbol(token);\n    }\n\n    function tokenName(address token) public view returns (string memory) {\n        return SafeBEP20Namer.tokenName(token);\n    }\n}\n\n// does not implement name or symbol\ncontract NamerTestFakeOptionalBEP20 {\n\n}\n\n// complies with BEP20 and returns strings\ncontract NamerTestFakeCompliantBEP20 {\n    string public name;\n    string public symbol;\n\n    constructor(string memory name_, string memory symbol_) public {\n        name = name_;\n        symbol = symbol_;\n    }\n}\n\n// implements name and symbol but returns bytes32\ncontract NamerTestFakeNoncompliantBEP20 {\n    bytes32 public name;\n    bytes32 public symbol;\n\n    constructor(bytes32 name_, bytes32 symbol_) public {\n        name = name_;\n        symbol = symbol_;\n    }\n}\n",
  "sourcePath": "/Users/fabriciopolicarpo/Desktop/Projects/forkpancakeswap/pizzaswap-migrator/contracts/test/SafeBEP20NamerTest.sol",
  "compiler": {
    "name": "solc",
    "version": "0.6.6+commit.6c089d02.Emscripten.clang"
  },
  "schemaVersion": "3.4.1",
  "updatedAt": "2021-06-18T18:22:48.022Z",
  "devdoc": {
    "methods": {}
  },
  "userdoc": {
    "methods": {}
  }
}